:020000040800F2
:10000000000002208117000851160008531600084E
:100010005516000857160008591600080000000081
:100020000000000000000000000000005B16000857
:100030005D160008000000005F1600086116000849
:10004000D1170008D1170008D1170008D1170008F0
:10005000D1170008D1170008D1170008D1170008E0
:10006000D1170008D1170008D1170008D1170008D0
:10007000D1170008D1170008D1170008D1170008C0
:10008000D1170008D1170008D1170008D1170008B0
:10009000D1170008D1170008D1170008D1170008A0
:1000A000D1170008D1170008D1170008D117000890
:1000B000D1170008D1170008D1170008D117000880
:1000C000D1170008D1170008D1170008D117000870
:1000D000D1170008D1170008D1170008D117000860
:1000E000D1170008D1170008D1170008D117000850
:1000F000D1170008D1170008D1170008D117000840
:10010000D1170008D1170008D1170008D11700082F
:10011000D1170008D1170008D1170008D11700081F
:10012000D1170008D1170008D1170008D11700080F
:10013000D11700080000000000000000D1170008DF
:10014000D1170008D1170008D1170008D1170008EF
:10015000D1170008D1170008D1170008D1170008DF
:10016000D1170008D1170008D1170008D1170008CF
:10017000D1170008D1170008D117000800000000AF
:1001800000000000D117000800000000000000007F
:10019000D11700080000000000000000D11700087F
:1001A000000000000000000000000000D11700085F
:1001B000D1170008D1170008D1170008D11700087F
:0401C000D11700084B
:1001C40010B5054C237833B9044B13B10448AFF38D
:1001D40000800123237010BDDC010020000000001A
:1001E400A419000808B5034B1BB103490348AFF336
:1001F400008008BD00000000E0010020A4190008F0
:1002040053B94AB9002908BF00281CBF4FF0FF3179
:100214004FF0FF3000F07AB9ADF1080C6DE904CE6F
:1002240000F006F8DDF804E0DDE9022304B07047CD
:100234002DE9F0478C460D460446089E002B51D10B
:100244008A4217466DD9B2FA82FEBEF1000F0BD076
:10025400CEF1200C01FA0EF520FA0CFC02FA0EF78E
:100264004CEA050C00FA0EF44FEA174A250CBCFBC5
:10027400FAF81FFA87F90AFB18CC45EA0C4508FB83
:1002840009F3AB420AD9ED1908F1FF3280F023815A
:10029400AB4240F22081A8F102083D44ED1AA4B219
:1002A400B5FBFAF00AFB105544EA054400FB09F9D2
:1002B400A14509D9E41900F1FF3380F00A81A14571
:1002C40040F2078102383C44A4EB090440EA0840A8
:1002D4000021002E61D024FA0EF4002334607360F0
:1002E400BDE8F0878B4207D9002E54D0002186E860
:1002F40021000846BDE8F087B3FA83F1002940F0F5
:100304008E80AB4202D3824200F2FA80841A65EBFB
:1003140003050120AC46002E3FD086E81010BDE84E
:10032400F08712B90127B7FBF2F7B7FA87FEBEF1DF
:10033400000F34D1EB1B3A0C1FFA87FC0121B3FBED
:10034400F2F8250C02FB183345EA03450CFB08F3CD
:10035400AB4207D9ED1908F1FF3002D2AB4200F2EB
:10036400D1808046ED1AA3B2B5FBF2F002FB105522
:1003740043EA05440CFB00FCA44507D9E41900F149
:10038400FF3302D2A44500F2B8801846A4EB0C0453
:1003940040EA08409DE731463046BDE8F087CEF19B
:1003A400200405FA0EF307FA0EF720FA04F83A0CC3
:1003B40025FA04F448EA0308B4FBF2F14FEA1845BD
:1003C40002FB11441FFA87FC45EA044501FB0CF3C8
:1003D400AB4200FA0EF409D9ED1901F1FF3080F0B7
:1003E4008A80AB4240F2878002393D44EB1A1FFAFF
:1003F40088F5B3FBF2F002FB103345EA034500FB3A
:100404000CF3AB4207D9ED1900F1FF386FD2AB42C0
:100414006DD902383D44EB1A40EA01418FE7C1F13E
:10042400200722FA07F88B4005FA01F448EA03038F
:1004340020FA07FE4FEA134CFD404EEA040EB5FBCA
:10044400FCF94FEA1E440CFB19551FFA83F844EAE1
:10045400054509FB08F4AC4202FA01F200FA01FA7C
:1004640008D9ED1809F1FF3043D2AC4241D9A9F1C2
:1004740002091D442D1B1FFA8EFEB5FBFCF00CFB7C
:1004840010554EEA054400FB08F8A04507D9E418C6
:1004940000F1FF3529D2A04527D902381C4440EA8F
:1004A4000940A4EB0804A0FB02894C45C6464D460E
:1004B40015D312D056B1BAEB0E0364EB050404FA5B
:1004C40007F7CB401F43CC40376074600021BDE880
:1004D400F0871846F8E69046E0E6C245EAD2B8EB63
:1004E400020E69EB03050138E4E72846D7E74046E6
:1004F40091E78146BEE7014678E702383C4445E788
:10050400084608E7A8F102083D442BE7704700BFFE
:100514007047000010B5094B4FF0FF3200241A62F7
:100524001C625A625C621A611C615A615C619A6164
:100534009C61FFF7EDFF204610BD00BF003802406C
:1005440038B50E4A0E4B054618784FF47A73B3FB50
:10055400F0F31068B0FBF3F000F09CF8044658B9CF
:100564000F2D09D8024629464FF0FF3000F05EF8FF
:10057400044B20461D6038BD012038BD0800002012
:10058400000000200400002008B50B4B1A6842F458
:1005940000721A601A6842F480621A601A6842F49F
:1005A40080721A60032000F02FF80020FFF7C8FFC4
:1005B40001F02CF8002008BD003C0240034A044B23
:1005C40011681B780B441360704700BFF8010020CA
:1005D40000000020014B1868704700BFF80100209C
:1005E40038B50446FFF7F6FF631C1CBF054B1B78A8
:1005F400054618BFE418FFF7EDFF401B8442FAD804
:1006040038BD00BF00000020074AD36823F4E0632C
:100614001B041B0C43F0BF63000243F4003300F4DB
:10062400E0600343D360704700ED00E0174B30B542
:10063400DC68C4F30224C4F10703251D042B28BF7E
:100644000423062D4FF0010505FA03F303F1FF33EC
:100654008CBF033C00241940A14005FA04F4013C7A
:100664002240002842EA01024FEA0212ADBF00F123
:10067400604000F00F00064B00F56140B5BFD2B2F8
:10068400D2B21A5480F8002330BD00BF00ED00E060
:1006940014ED00E00138B0F1807F0AD2064B074A1E
:1006A4005860F02182F823100020072298601A6015
:1006B40070470120704700BF10E000E000ED00E04B
:1006C4002DE9F04F85B00B68DFF8A081654ADFF8AB
:1006D400A091019300234FF0010E019C0EFA03FE3A
:1006E4000EEA0406B64540F0AA804C6824F01007D0
:1006F400022F16D14FEAD30A00EB8A0A03F0070B44
:10070400DAF820504FEA8B0B4FF00F0C0CFA0BFC6D
:1007140025EA0C0C0D6905FA0BF545EA0C05CAF837
:1007240020504FEA430A0325D0F800B005FA0AF531
:10073400ED4304F0030C0BEA050B0CFA0AFC013F31
:100744004CEA0B0C012FC0F800C011D8876807EAE7
:10075400050BCF6807FA0AFC4CEA0B078760476869
:1007640027EA0E0EC4F300179F4047EA0E074760BE
:10077400C7683D408F6807FA0AF73D43C560E50046
:100784005DD54FF0000BCDF80CB0D8F84470364D61
:1007940047F48047C8F84470D8F8447007F4804799
:1007A4000397039F23F0030707F1804707F59C375E
:1007B40003F0030CD7F808A04FEA8C0C4FF00F0E8F
:1007C4000EFA0CFEA8422AEA0E0E3FD005F580650B
:1007D400A8423DD005F58065A8423BD005F580656B
:1007E400A84239D005F58065A84237D0484537D0AE
:1007F40005F50065A84214BF0725062505FA0CF582
:1008040045EA0E05BD601568F74314F4803F0CBF3C
:100814003D4035431560556814F4003F0CBF3D401E
:1008240035435560956814F4801F0CBF3D40354333
:100834009560D568A40254BF3D403543D56001336B
:10084400102B7FF448AF05B0BDE8F08F5D46D5E7C7
:100854000125D3E70225D1E70325CFE70425CDE71A
:100864000525CBE7003C014000000240003802406F
:10087400001402402DE9F04F3D4DDFF8FCA0DFF8F5
:10088400FCB000234FF0010909FA03FC0CEA010251
:1008940094455CD123F0030606F1804606F59C36A8
:1008A40003F0030EB4684FEA8E0E0F2707FA0EF713
:1008B40004EA07082F4CA0424ED004F58064A042FD
:1008C4004CD004F58064A0424AD004F58064A04270
:1008D40048D004F58064A04246D0504546D05845DF
:1008E4000CBF0624072404FA0EF4A04510D1B46802
:1008F40024EA0707B7602C68D24314402C606C6864
:1009040014406C60AC681440AC60EC682240EA604F
:100914005E0003220468B240D24314400460DC0841
:1009240000EB840403F0070E266A4FEA8E0E0F27AD
:1009340007FA0EF726EA07072762846814408460E2
:10094400446824EA0C044460C4682240C260013351
:10095400102B99D1BDE8F08F0024C4E70124C2E72D
:100964000224C0E70324BEE70424BCE70524BAE755
:10097400003C014000000240001402400018024004
:100984000AB1816170470904FBE7436931EA030353
:1009940008BF0904816170472DE9F0410D46044602
:1009A40010B90120BDE8F081444B1A6802F00F022F
:1009B4008A4228D321688F072DD4C80740D43F4BDF
:1009C4001A6802F00F02954266D3226851076CD46C
:1009D400130707D53A4A2169936823F4604343EA2D
:1009E400C103936000F092F8354B364A9B68C3F319
:1009F4000313D35CD840344B18600020FFF7A0FDEC
:100A04000020BDE8F081CAB21A701B6803F00F031E
:100A14009942C6D1CEE72A4B11F0040F1EBF9A6843
:100A240042F4E0529A600E0742BF9A6842F4604270
:100A34009A609A68A06822F0F00202439A60BCE7C8
:100A440062681F4B012A1DD11B6813F4003FA8D014
:100A54001B4EB36823F003031343B360FFF7BAFDDF
:100A640041F288380746B368626803F00C03B3EBBD
:100A7400820FA4D0FFF7AEFDC01B4045F3D903207D
:100A8400BDE8F081911E01291B6802D813F0007F94
:100A9400DDE713F0020FDAE7EAB21A701B6803F01D
:100AA4000F039D427FF47DAF8FE70549E0688B68B3
:100AB40023F4E05303438B608AE700BF003C024009
:100AC40000380240071A000808000020044B054AB9
:100AD4009B68C3F38223D35C034A1068D8407047F1
:100AE40000380240171A000808000020044B054A89
:100AF4009B68C3F34233D35C034A1068D840704701
:100B040000380240171A000808000020204908B5E0
:100B14008B6803F00C03082B07D00C2B20D01D4A44
:100B24001D48042B18BF104608BD4A684B68496825
:100B340013F4800314BF18481648C1F3881118BF72
:100B4400002302F03F02A1FB0001FFF759FB104B09
:100B54005B68C3F3014301335B00B0FBF3F008BDF2
:100B64004A684B68496813F4800314BF0A4809486B
:100B7400C1F3881118BF002302F03F02A1FB00015A
:100B8400FFF73EFB024B5B68C3F30273E5E700BF6C
:100B9400003802400024F40000127A0070B54F4C73
:100BA400FFF718FD236843F001030546236023681B
:100BB40098076DD5236843F080032360FFF70AFD8F
:100BC4000023A360454C054641F28836A36813F020
:100BD4000C0F64D1FFF7FEFC236823F45023236039
:100BE4003E4C0546236899035FD4FFF7F3FC236862
:100BF40023F080732360394C054623689A015AD444
:100C0400FFF7E8FC236823F080632360334C054638
:100C140023681B0155D4FFF7DDFC236823F08053C0
:100C240023602E4C0546206810F000504FD12C4B09
:100C34006360C4F8843003F16043C4F88830E36827
:100C4400284A23F4F853E360E36823F40053E36091
:100C5400E36823F48043E360E36843F41F03E36041
:100C6400E36843F40013E360E36843F48003E36060
:100C7400636F23F001036367636F43F080736367FB
:100C8400194B1A60FFF75CFC003018BF012070BDDF
:100C9400FFF7A0FC401B022889D9032070BDFFF791
:100CA40099FC401BB04291D9F7E7FFF793FC401B36
:100CB400642897D9F1E7FFF78DFC401B02289CD9E3
:100CC400EBE7FFF787FC401B0228A1D9E5E7FFF714
:100CD40081FC401B0228A6D9DFE700BF0038024090
:100CE400103000240024F4000800002003682DE9DB
:100CF400F341DF07044610D423689E0767D42368B2
:100D04001A0700F1B28023685B0700F1D080A26962
:100D1400002A40F0398100201EE0974B9A6802F0C7
:100D24000C02042A10D09A6802F00C02082A02D19C
:100D34005B685D0208D4904B9A6802F00C020C2A9E
:100D44000DD15A6850020AD58B4B1B689903D3D531
:100D54006368002BD0D1012002B0BDE8F081626845
:100D6400B2F5803F11D11A6842F480321A60FFF75D
:100D740031FC814D06462B689A03BDD4FFF72AFC4B
:100D8400801B6428F7D90320E6E77B4DB2F5A02F3A
:100D94002B6807D143F480232B602B6843F4803302
:100DA4002B60E4E723F480332B602B6823F4802347
:100DB4002B60002ADBD1FFF70DFC06462B689B0352
:100DC4009AD5FFF707FC801B6428F7D9DBE76A4B49
:100DD4009A6812F00C0F10D09A6802F00C02082ADC
:100DE40002D15B685F0208D5634A936803F00C0381
:100DF4000C2B11D153685E020ED45F4B1A68950711
:100E040002D5E268012AA6D11A68216922F0F80203
:100E140042EAC1021A6072E7E268584BB2B1012299
:100E24001A60FFF7D7FB544D06462B68980707D581
:100E34002B68226923F0F80343EAC2032B605EE7C0
:100E4400FFF7C8FB801B0228EFD99CE71A60FFF765
:100E5400C1FB494D06462B6899077FF550AFFFF754
:100E6400B9FB801B0228F6D98DE76269444B7AB13D
:100E740001221A60FFF7AEFB3F4D06466B6F9F07DA
:100E84003FF541AFFFF7A6FB801B0228F6D97AE7AE
:100E94001A60FFF79FFB384D06466B6F98077FF586
:100EA40032AFFFF797FB801B0228F6D96BE7324B72
:100EB4001A6C12F0805228D101921A6C42F08052BE
:100EC4001A641B6C03F080530193019B01262D4D82
:100ED4002B68D9051BD5A368274D012B27D12B6F70
:100EE40043F001032B67FFF775FB234D074641F2DF
:100EF40088382B6F9B0739D5002E3FF408AF1E4A64
:100F0400136C23F08053136401E70026DFE72B689A
:100F140043F480732B60FFF75DFB07462B68DA050B
:100F2400D9D4FFF757FBC01B0228F7D92BE7052BB1
:100F340004D12B6F43F004032B67D0E72A6F22F010
:100F440001022A672A6F22F004022A67002BCAD101
:100F5400FFF740FB41F2883807462B6F9807CBD543
:100F6400FFF738FBC01B4045F7D90CE7FFF732FB0E
:100F7400C01B4045BDD906E7003802400000474287
:100F8400800E474200700040234DAB6803F00C0311
:100F9400082B3FF4E0AE214E0023022A33602DD10A
:100FA400FFF718FB07462B68990121D4226AE369ED
:100FB4001343626A43EA8213E26A43EA0263226BDE
:100FC40043EA0273A26A144C5208013A43EA024308
:100FD4006B6001233360FFF7FDFA054623689A012D
:100FE4003FF599AEFFF7F6FA401B0228F6D9CAE698
:100FF400FFF7F0FAC01B0228D5D9C4E6FFF7EAFAD6
:1010040004462B689B017FF586AEFFF7E3FA001BCD
:101014000228F6D9B7E600BF003802406000474214
:101024002DE9F0470668C2683369C16923F4405367
:1010340013433361044683680069F26803436069BB
:1010440022F41642034322F00C020B431343F360D1
:101054007369A26923F440731343B1F5004F7361BC
:101064007A4B7CD19E4203D003F580639E4244D1E7
:10107400FFF73CFD192505FB00F360684FF0640998
:101084004000B3FBF0F3B3FBF9F34FEA0318FFF7A7
:101094002DFD636868435B00B0FBF3F7FFF726FDA3
:1010A400636868435B00B0FBF3F3B3FBF9F309FB3C
:1010B4001373DB003233B3FBF9F35B0003F4F8770B
:1010C400FFF714FD626868435200B0FBF2FAFFF7C1
:1010D4000DFD636868435B00B0FBF3F3B3FBF9F306
:1010E40009FB13A3DB003233B3FBF9F303F007036B
:1010F40043443B44B360BDE8F087FFF7E7FC1925A0
:1011040005FB00F360684FF064094000B3FBF0F3A3
:10111400B3FBF9F34FEA0318FFF7D8FC636868439D
:101124005B00B0FBF3F7FFF7D1FC636868435B0037
:10113400B0FBF3F3B3FBF9F309FB1373DB003233B6
:10114400B3FBF9F35B0003F4F877FFF7BFFC6268C5
:1011540068435200B0FBF2FAFFF7B8FCB9E79E42CD
:1011640002D03B4B9E4240D1FFF7C0FC6768192573
:101174004FF0640905FB00F3BF00B3FBF7F3B3FBC7
:10118400F9F31F01FFF7B2FC636868439B00B0FBEF
:10119400F3F8FFF7ABFC636868439B00B0FBF3F321
:1011A400B3FBF9F309FB13831B013233B3FBF9F3EC
:1011B40003F0F008FFF79AFC626868439200B0FB02
:1011C400F2FAFFF793FC636868439B00B0FBF3F308
:1011D400B3FBF9F309FB13A31B013233B3FBF9F39C
:1011E40003F00F0343EA080383E7FFF76FFC676824
:1011F40019254FF0640905FB00F3BF00B3FBF7F3B7
:10120400B3FBF9F31F01FFF761FC636868439B00BC
:10121400B0FBF3F8FFF75AFC636868439B00B0FB2C
:10122400F3F3B3FBF9F309FB13831B013233B3FB71
:10123400F9F303F0F008FFF749FC62686843920091
:10124400B0FBF2FAFFF742FCBDE700BF001001401B
:101254000014014010B5044640B390F8393003F04F
:10126400FF021BB980F8382000F03CFA22682423DE
:1012740084F83930D36823F40053D3602046FFF751
:10128400CFFE23681A6922F490421A615A6922F047
:101294002A025A61DA6842F40052DA6000202023FC
:1012A400E06384F8393084F83A3010BD012010BD71
:1012B40010B5044690B10268242380F83930D3680D
:1012C40023F40053D36000F045FA0020E06384F86F
:1012D400380084F8390084F83A0010BD012010BDAC
:1012E400064BDA68D203FCD41A69002ABFBF044A49
:1012F4005A6002F188325A60704700BF003C0240D5
:10130400230167450E4B1A6942F002021A611A69F9
:1013140042F008021A611A6942F480321A61DA68EA
:10132400D103FCD4DA68D20742BFDA6842F0010282
:10133400DA60034A136923F002031361704700BFA4
:10134400003C02400A4B1A6942F001021A61017022
:10135400DA68D103FCD4DA68D20742BFDA6842F013
:101364000102DA60024A136923F001031361704732
:10137400003C0240024A136943F000431361704782
:10138400003C024030B514228BB00DEB020000216A
:1013940000F046FA0024224B01941A6B214D42F0CE
:1013A40004021A631A6B02F004020192019A029475
:1013B4001A6B42F080021A631A6B02F080020292E6
:1013C400029A03941A6B42F001021A631A6B02F038
:1013D40001020392039A04941A6B42F002021A6304
:1013E4001B6B03F002032246049328462021049B2E
:1013F400FFF7C6FA4FF40053059305A90A4B0B48AF
:1014040006930794FFF75CF92023059305A90123AC
:101414002846069307940894FFF752F90BB030BDA1
:101424000038024000000240000021100008024081
:10143400034B9860D0F800D0D0F804F0704700BF98
:1014440000ED00E005490023DAB2825C02B970477E
:101454004A600A685206FCD50133F5E700440040AF
:1014640010B5094C002322689206FCD56268D2B2FA
:10147400C2548A4203F10103DBB2F4D118440023BD
:1014840000F8013C10BD00BF00440040034B1A6843
:101494009206FCD55868C0B2704700BF00440040B3
:1014A4002DE9FF411648174FFFF7CCFF0D2101A886
:1014B400FFF7D6FF01A8FFF7C5FF01A800F087F9E1
:1014C4000546FFF70DFFFFF71DFF0024ADB204F141
:1014D4000066AC4206F5804604D3FFF74BFF04B028
:1014E400BDE8F081FFF7D2FF202180463846FFF7A0
:1014F4004CFA41463046FFF725FF0134E7E700BFC9
:10150400BC1900080000024030B595B03422002117
:1015140007A800F085F90021142202A800F080F940
:1015240000251C4B00951A6C42F080521A641B6C07
:10153400194A03F080530093009B0195136823F428
:10154400404343F48043136013680E9503F440430F
:101554000193019B01230A9310230B930F934FF4E0
:10156400A8730224109307A80423119307940D94DD
:1015740012941394FFF7BAFB0F23029321464FF4FE
:10158400805302A80394049505930695FFF704FA83
:1015940015B030BD003802400070004010B5FEF7B1
:1015A400F3FFFFF7B1FFFFF7EDFE00F07FF8104BFC
:1015B40010485B68FFF746FF0F48FFF743FFFFF74C
:1015C40065FF312801D1FFF76BFF0C480C4CFFF786
:1015D4006FFEFFF7E3FAFEF79DFF0A48FFF728FFC7
:1015E40020462021FFF7D1F9C820FEF7F9FFF7E7DD
:1015F40000440040D0190008EC190008FC01002048
:1016040000000240004000087047000007B50E4B80
:10161400002100915A6C42F480425A645A6C02F4DC
:1016240080420092009A01911A6C42F080521A642E
:101634001B6C03F0805301930720019BFEF7E4FF2A
:1016440003B05DF804FB00BF003802407047FEE7BA
:10165400FEE7FEE7FEE7704770477047FEF7AEBF50
:101664000F49D1F8883043F47003C1F888300D4B2A
:101674001A68002042F001021A6098601A6822F089
:10168400847222F480321A60074A5A601A6822F47B
:1016940080221A60D8604FF000638B60704700BFEF
:1016A40000ED00E0003802401030002408B50B487B
:1016B4000B4B4FF4E13E80E808400C22002383608A
:1016C400C360036142618361C361FFF7C3FD18B165
:1016D400BDE80840FFF798BF08BD00BFFC0100202B
:1016E4000044004010B5044688B01422002103A829
:1016F40000F096F82268154B9A4224D103F5FA3388
:10170400002101911A6C124842F400321A641A6CD6
:1017140002F400320192019A02911A6B42F0010222
:101724001A631B6B03F001030293029B0C230393C4
:1017340002230493012305930323069303A9072398
:101744000793FEF7BDFF08B010BD00BF0044004082
:10175400000002400268064B9A4208D1054A064836
:10176400136C23F4003313640C21FFF783B8704720
:10177400004400400038024000000240DFF834D04A
:10178400002103E00C4B5B58435004310B480C4BD5
:1017940042189A42F6D30B4A02E0002342F8043B73
:1017A400094B9A42F9D3FFF75BFF00F015F8FFF7F6
:1017B400F5FE7047000002203C1B000800000020DA
:1017C400DC010020DC0100203C020020FEE70A22AC
:1017D400002100F0ADB8000070B50D4E0D4CA41BF7
:1017E400A4100025A54209D10B4E0C4C00F0D8F8EA
:1017F400A41BA4100025A54205D170BD56F82530C0
:1018040098470135EEE756F8253098470135F2E759
:10181400341B0008341B0008341B0008381B000864
:1018240002440346934200D1704703F8011BF9E7D1
:101834002DE9F84F8046894692461F468B465D4601
:101844000A9815F8014B00F089F82044467816F000
:1018540008060BD12D2C0BD12C7801260BF1020597
:1018640067B1102F14D1302C0AD011E0AB46E6E753
:101874002B2C04BF2C780BF10205F1E7302C27D177
:101884002B7803F0DF03582B4BD16C7810270235EB
:10189400002E0CBF6FF000414FF000410022B1FB5D
:1018A400F7FE104607FB1E1CA4F13003092B11D8C8
:1018B4001C46A7421DDD531C07D0864516D301D113
:1018C400A44513DB00FB0740012215F8014BEBE7AD
:1018D4000A27DDE7A4F14103192B01D8373CE8E7D7
:1018E400A4F16103192B04D8573CE2E74FF0FF320F
:1018F400EBE7531C08D12223C8F800300846BAF19C
:10190400000F07D1BDE8F88F06B14042BAF1000FCD
:101914000CD022B1013DCAF80050BDE8F88F4D4605
:10192400F9E73024002FB3D10827B1E7BDE8F88FD9
:10193400084B37B51C68084D236A002B08BF2B469B
:10194400009313460A4601462046FFF771FF03B091
:1019540030BD00BF0C00002070000020D0F8EC0067
:10196400704782B001B901A942B14BB113780B6041
:101974001278101C18BF012002B070471046FBE714
:101984006FF00100F8E749B1FF2A85BF8A2303609D
:101994000A704FF0FF3098BF012070470846704727
:1019A400F8B500BFF8BC08BC9E467047F8B500BF48
:0819B400F8BC08BC9E46704718
:1019BC00204150502053495A4520494E20425954F9
:1019CC0045530A002041474820534F4C4152204276
:1019DC004F415420424F4F544C4F414445520A0002
:1019EC00312D4C4F41445F4150500A322D4A554DD8
:1019FC005020544F204150503A0A00000000000083
:101A0C0000000001020304060708090000000001A1
:101A1C000203044300504F534958002E000020206D
:101A2C002020202020202028282828282020202082
:101A3C002020202020202020202020202020881042
:101A4C0010101010101010101010101010100404A2
:101A5C0004040404040404041010101010101041A9
:101A6C00414141414101010101010101010101011A
:101A7C0001010101010101010110101010101042AF
:101A8C0042424242420202020202020202020202EA
:101A9C0002020202020202020210101010200000C8
:101AAC00000000000000000000000000000000002A
:101ABC00000000000000000000000000000000001A
:101ACC00000000000000000000000000000000000A
:101ADC0000000000000000000000000000000000FA
:101AEC0000000000000000000000000000000000EA
:101AFC0000000000000000000000000000000000DA
:101B0C0000000000000000000000000000000000C9
:101B1C0000000000000000000000000000000000B9
:081B2C0008E7FF7F0100000043
:041B3400E9010008BB
:041B3800C5010008DB
:101B3C0001000000100000000024F4001000002040
:101B4C000000000000000000000000000000000089
:101B5C000000000000000000000000000000000079
:101B6C000000000000000000000000000000000069
:101B7C000000000000000000000000000000000059
:101B8C000000000000000000000000000000000049
:101B9C000000000000000000000000000000000039
:101BAC0043000000000000000000000000000000E6
:101BBC000000000000000000000000000000000019
:101BCC0043000000000000000000000000000000C6
:101BDC0000000000000000000000000000000000F9
:101BEC0043000000000000000000000000000000A6
:101BFC0000000000000000000000000000000000D9
:101C0C004300000000000000000000000000000085
:101C1C0000000000000000000000000000000000B8
:101C2C004300000000000000000000000000000065
:101C3C000000000000000000000000000000000098
:101C4C004300000000000000000000000000000045
:101C5C000000000000000000000000000000000078
:101C6C004300000000000000000000000000000025
:101C7C000000000000000000000000000000000058
:101C8C008B1900086719000800000000291A0008C9
:101C9C00271A0008061A0008061A0008061A000877
:101CAC00061A0008061A0008061A0008061A000888
:101CBC00061A0008061A0008FFFFFFFFFFFFFFFFD0
:101CCC00FFFFFFFFFFFF00000100415343494900A4
:101CDC0000000000000000000000000000000000F8
:101CEC00000000000000000000004153434949007F
:101CFC0000000000000000000000000000000000D8
:0C1D0C00000000000000000000000000CB
:040000050800178157
:00000001FF
